{
  "_format": "hh3-artifact-1",
  "contractName": "EthereumDIDRegistry",
  "sourceName": "contracts/EthereumDIDRegistry.sol",
  "abi": [
    {
      "anonymous": false,
      "inputs": [
        {
          "indexed": true,
          "internalType": "address",
          "name": "identity",
          "type": "address"
        },
        {
          "indexed": false,
          "internalType": "bytes32",
          "name": "name",
          "type": "bytes32"
        },
        {
          "indexed": false,
          "internalType": "bytes",
          "name": "value",
          "type": "bytes"
        },
        {
          "indexed": false,
          "internalType": "uint256",
          "name": "validTo",
          "type": "uint256"
        },
        {
          "indexed": false,
          "internalType": "uint256",
          "name": "previousChange",
          "type": "uint256"
        }
      ],
      "name": "DIDAttributeChanged",
      "type": "event"
    },
    {
      "anonymous": false,
      "inputs": [
        {
          "indexed": true,
          "internalType": "address",
          "name": "identity",
          "type": "address"
        },
        {
          "indexed": false,
          "internalType": "bytes32",
          "name": "delegateType",
          "type": "bytes32"
        },
        {
          "indexed": false,
          "internalType": "address",
          "name": "delegate",
          "type": "address"
        },
        {
          "indexed": false,
          "internalType": "uint256",
          "name": "validTo",
          "type": "uint256"
        },
        {
          "indexed": false,
          "internalType": "uint256",
          "name": "previousChange",
          "type": "uint256"
        }
      ],
      "name": "DIDDelegateChanged",
      "type": "event"
    },
    {
      "anonymous": false,
      "inputs": [
        {
          "indexed": true,
          "internalType": "address",
          "name": "identity",
          "type": "address"
        },
        {
          "indexed": false,
          "internalType": "address",
          "name": "owner",
          "type": "address"
        },
        {
          "indexed": false,
          "internalType": "uint256",
          "name": "previousChange",
          "type": "uint256"
        }
      ],
      "name": "DIDOwnerChanged",
      "type": "event"
    },
    {
      "inputs": [
        {
          "internalType": "address",
          "name": "identity",
          "type": "address"
        },
        {
          "internalType": "bytes32",
          "name": "delegateType",
          "type": "bytes32"
        },
        {
          "internalType": "address",
          "name": "delegate",
          "type": "address"
        },
        {
          "internalType": "uint256",
          "name": "validity",
          "type": "uint256"
        }
      ],
      "name": "addDelegate",
      "outputs": [],
      "stateMutability": "nonpayable",
      "type": "function"
    },
    {
      "inputs": [
        {
          "internalType": "address",
          "name": "identity",
          "type": "address"
        },
        {
          "internalType": "uint8",
          "name": "sigV",
          "type": "uint8"
        },
        {
          "internalType": "bytes32",
          "name": "sigR",
          "type": "bytes32"
        },
        {
          "internalType": "bytes32",
          "name": "sigS",
          "type": "bytes32"
        },
        {
          "internalType": "bytes32",
          "name": "delegateType",
          "type": "bytes32"
        },
        {
          "internalType": "address",
          "name": "delegate",
          "type": "address"
        },
        {
          "internalType": "uint256",
          "name": "validity",
          "type": "uint256"
        }
      ],
      "name": "addDelegateSigned",
      "outputs": [],
      "stateMutability": "nonpayable",
      "type": "function"
    },
    {
      "inputs": [
        {
          "internalType": "address",
          "name": "identity",
          "type": "address"
        },
        {
          "internalType": "address",
          "name": "newOwner",
          "type": "address"
        }
      ],
      "name": "changeOwner",
      "outputs": [],
      "stateMutability": "nonpayable",
      "type": "function"
    },
    {
      "inputs": [
        {
          "internalType": "address",
          "name": "identity",
          "type": "address"
        },
        {
          "internalType": "uint8",
          "name": "sigV",
          "type": "uint8"
        },
        {
          "internalType": "bytes32",
          "name": "sigR",
          "type": "bytes32"
        },
        {
          "internalType": "bytes32",
          "name": "sigS",
          "type": "bytes32"
        },
        {
          "internalType": "address",
          "name": "newOwner",
          "type": "address"
        }
      ],
      "name": "changeOwnerSigned",
      "outputs": [],
      "stateMutability": "nonpayable",
      "type": "function"
    },
    {
      "inputs": [
        {
          "internalType": "address",
          "name": "",
          "type": "address"
        }
      ],
      "name": "changed",
      "outputs": [
        {
          "internalType": "uint256",
          "name": "",
          "type": "uint256"
        }
      ],
      "stateMutability": "view",
      "type": "function"
    },
    {
      "inputs": [
        {
          "internalType": "address",
          "name": "",
          "type": "address"
        },
        {
          "internalType": "bytes32",
          "name": "",
          "type": "bytes32"
        },
        {
          "internalType": "address",
          "name": "",
          "type": "address"
        }
      ],
      "name": "delegates",
      "outputs": [
        {
          "internalType": "uint256",
          "name": "",
          "type": "uint256"
        }
      ],
      "stateMutability": "view",
      "type": "function"
    },
    {
      "inputs": [
        {
          "internalType": "address",
          "name": "identity",
          "type": "address"
        }
      ],
      "name": "identityOwner",
      "outputs": [
        {
          "internalType": "address",
          "name": "",
          "type": "address"
        }
      ],
      "stateMutability": "view",
      "type": "function"
    },
    {
      "inputs": [
        {
          "internalType": "address",
          "name": "",
          "type": "address"
        }
      ],
      "name": "nonce",
      "outputs": [
        {
          "internalType": "uint256",
          "name": "",
          "type": "uint256"
        }
      ],
      "stateMutability": "view",
      "type": "function"
    },
    {
      "inputs": [
        {
          "internalType": "address",
          "name": "",
          "type": "address"
        }
      ],
      "name": "owners",
      "outputs": [
        {
          "internalType": "address",
          "name": "",
          "type": "address"
        }
      ],
      "stateMutability": "view",
      "type": "function"
    },
    {
      "inputs": [
        {
          "internalType": "address",
          "name": "identity",
          "type": "address"
        },
        {
          "internalType": "bytes32",
          "name": "name",
          "type": "bytes32"
        },
        {
          "internalType": "bytes",
          "name": "value",
          "type": "bytes"
        }
      ],
      "name": "revokeAttribute",
      "outputs": [],
      "stateMutability": "nonpayable",
      "type": "function"
    },
    {
      "inputs": [
        {
          "internalType": "address",
          "name": "identity",
          "type": "address"
        },
        {
          "internalType": "uint8",
          "name": "sigV",
          "type": "uint8"
        },
        {
          "internalType": "bytes32",
          "name": "sigR",
          "type": "bytes32"
        },
        {
          "internalType": "bytes32",
          "name": "sigS",
          "type": "bytes32"
        },
        {
          "internalType": "bytes32",
          "name": "name",
          "type": "bytes32"
        },
        {
          "internalType": "bytes",
          "name": "value",
          "type": "bytes"
        }
      ],
      "name": "revokeAttributeSigned",
      "outputs": [],
      "stateMutability": "nonpayable",
      "type": "function"
    },
    {
      "inputs": [
        {
          "internalType": "address",
          "name": "identity",
          "type": "address"
        },
        {
          "internalType": "bytes32",
          "name": "delegateType",
          "type": "bytes32"
        },
        {
          "internalType": "address",
          "name": "delegate",
          "type": "address"
        }
      ],
      "name": "revokeDelegate",
      "outputs": [],
      "stateMutability": "nonpayable",
      "type": "function"
    },
    {
      "inputs": [
        {
          "internalType": "address",
          "name": "identity",
          "type": "address"
        },
        {
          "internalType": "uint8",
          "name": "sigV",
          "type": "uint8"
        },
        {
          "internalType": "bytes32",
          "name": "sigR",
          "type": "bytes32"
        },
        {
          "internalType": "bytes32",
          "name": "sigS",
          "type": "bytes32"
        },
        {
          "internalType": "bytes32",
          "name": "delegateType",
          "type": "bytes32"
        },
        {
          "internalType": "address",
          "name": "delegate",
          "type": "address"
        }
      ],
      "name": "revokeDelegateSigned",
      "outputs": [],
      "stateMutability": "nonpayable",
      "type": "function"
    },
    {
      "inputs": [
        {
          "internalType": "address",
          "name": "identity",
          "type": "address"
        },
        {
          "internalType": "bytes32",
          "name": "name",
          "type": "bytes32"
        },
        {
          "internalType": "bytes",
          "name": "value",
          "type": "bytes"
        },
        {
          "internalType": "uint256",
          "name": "validity",
          "type": "uint256"
        }
      ],
      "name": "setAttribute",
      "outputs": [],
      "stateMutability": "nonpayable",
      "type": "function"
    },
    {
      "inputs": [
        {
          "internalType": "address",
          "name": "identity",
          "type": "address"
        },
        {
          "internalType": "uint8",
          "name": "sigV",
          "type": "uint8"
        },
        {
          "internalType": "bytes32",
          "name": "sigR",
          "type": "bytes32"
        },
        {
          "internalType": "bytes32",
          "name": "sigS",
          "type": "bytes32"
        },
        {
          "internalType": "bytes32",
          "name": "name",
          "type": "bytes32"
        },
        {
          "internalType": "bytes",
          "name": "value",
          "type": "bytes"
        },
        {
          "internalType": "uint256",
          "name": "validity",
          "type": "uint256"
        }
      ],
      "name": "setAttributeSigned",
      "outputs": [],
      "stateMutability": "nonpayable",
      "type": "function"
    },
    {
      "inputs": [
        {
          "internalType": "address",
          "name": "identity",
          "type": "address"
        },
        {
          "internalType": "bytes32",
          "name": "delegateType",
          "type": "bytes32"
        },
        {
          "internalType": "address",
          "name": "delegate",
          "type": "address"
        }
      ],
      "name": "validDelegate",
      "outputs": [
        {
          "internalType": "bool",
          "name": "",
          "type": "bool"
        }
      ],
      "stateMutability": "view",
      "type": "function"
    }
  ],
  "bytecode": "0x6080604052348015600e575f5ffd5b5061124c8061001c5f395ff3fe608060405234801561000f575f5ffd5b50600436106100fa575f3560e01c806380b29f7c11610093578063a7068d6611610063578063a7068d66146102ab578063e476af5c146102be578063f00d4b5d146102d1578063f96d0f9f146102e4575f5ffd5b806380b29f7c1461025f5780638733d4e81461027257806393072684146102855780639c2c1b2b14610298575f5ffd5b8063240cf1fa116100ce578063240cf1fa146101a9578063622b2a3c146101bc57806370ae92d21461022d5780637ad4b0a41461024c575f5ffd5b8062c023da146100fe578063022914a7146101135780630d44625b14610158578063123b5e9814610196575b5f5ffd5b61011161010c366004610cbd565b610303565b005b61013b610121366004610d10565b5f602081905290815260409020546001600160a01b031681565b6040516001600160a01b0390911681526020015b60405180910390f35b610188610166366004610d30565b600160209081525f938452604080852082529284528284209052825290205481565b60405190815260200161014f565b6101116101a4366004610d79565b610314565b6101116101b7366004610dfb565b61039e565b61021d6101ca366004610d30565b6001600160a01b039283165f908152600160209081526040808320815180840196909652815180870384018152958201825285519583019590952083529381528382209290941681529252902054421090565b604051901515815260200161014f565b61018861023b366004610d10565b60036020525f908152604090205481565b61011161025a366004610e4e565b610467565b61011161026d366004610d30565b61047a565b61013b610280366004610d10565b610486565b610111610293366004610ea9565b6104b5565b6101116102a6366004610f04565b61058a565b6101116102b9366004610f6c565b61065f565b6101116102cc366004610fad565b61066c565b6101116102df366004611022565b6106e9565b6101886102f2366004610d10565b60026020525f908152604090205481565b61030f833384846106f8565b505050565b5f601960f81b81306003826103288d610486565b6001600160a01b03166001600160a01b031681526020019081526020015f20548b88888860405160200161036398979695949392919061106a565b6040516020818303038152906040528051906020012090506103948861038c8a8a8a8a876107b2565b86868661089d565b5050505050505050565b5f601960f81b81306003826103b28b610486565b6001600160a01b0316815260208082019290925260409081015f205481516001600160f81b0319968716818501529490951660218501526001600160601b0319606093841b8116602286015260368501959095528a831b851660568501526a31b430b733b2a7bbb732b960a91b606a8501529186901b909316607583015280516069818403018152608990920190528051910120905061045f8661045981888888876107b2565b84610963565b505050505050565b610474843385858561089d565b50505050565b61030f83338484610a29565b6001600160a01b038082165f9081526020819052604081205490911680156104ae5792915050565b5090919050565b5f601960f81b81306003826104c98c610486565b6001600160a01b0316815260208082019290925260409081015f205481516001600160f81b0319968716818501529490951660218501526001600160601b0319606093841b8116602286015260368501959095528b831b851660568501526d7265766f6b6544656c656761746560901b606a850152607884018890529186901b90931660988301528051608c81840301815260ac9092019052805191012090506105818761057a81898989876107b2565b8585610a29565b50505050505050565b5f601960f81b813060038261059e8d610486565b6001600160a01b0316815260208082019290925260409081015f205490516001600160f81b031995861692810192909252929093166021840152606090811b6001600160601b0319908116602285015260368401929092528a811b821660568401526a61646444656c656761746560a81b606a8401526075830187905285901b16609582015260a9810183905260c901604051602081830303815290604052805190602001209050610394886106578a8a8a8a876107b2565b868686610b06565b6104748433858585610b06565b5f601960f81b81306003826106808c610486565b6001600160a01b03166001600160a01b031681526020019081526020015f20548a87876040516020016106b997969594939291906110e1565b604051602081830303815290604052805190602001209050610581876106e289898989876107b2565b85856106f8565b6106f4823383610963565b5050565b838361070382610486565b6001600160a01b0316816001600160a01b03161461073c5760405162461bcd60e51b815260040161073390611155565b60405180910390fd5b6001600160a01b0386165f818152600260205260408082205490517f18ab6b2ae3d64306c00ce663125f2bd680e441a098de1635bd7ad8b0d44965e492610788928992899291906111a6565b60405180910390a25050506001600160a01b039092165f9081526002602052604090204390555050565b604080515f8082526020820180845284905260ff8716928201929092526060810185905260808101849052819060019060a0016020604051602081039080840390855afa158015610805573d5f5f3e3d5ffd5b50505060206040510351905061081a87610486565b6001600160a01b0316816001600160a01b03161461086a5760405162461bcd60e51b815260206004820152600d60248201526c6261645f7369676e617475726560981b6044820152606401610733565b6001600160a01b0381165f90815260036020526040812080549161088d836111e5565b9091555090979650505050505050565b84846108a882610486565b6001600160a01b0316816001600160a01b0316146108d85760405162461bcd60e51b815260040161073390611155565b6001600160a01b0387167f18ab6b2ae3d64306c00ce663125f2bd680e441a098de1635bd7ad8b0d44965e4868661090f87426111fd565b6001600160a01b038c165f908152600260205260409081902054905161093894939291906111a6565b60405180910390a25050506001600160a01b039093165f908152600260205260409020439055505050565b828261096e82610486565b6001600160a01b0316816001600160a01b03161461099e5760405162461bcd60e51b815260040161073390611155565b6001600160a01b038581165f8181526020818152604080832080546001600160a01b031916958916958617905560028252918290205482519485529084015290917f38a5a6e68f30ed1ab45860a4afb34bcb2fc00f22ca462d249b8a8d40cda6f7a3910160405180910390a2505050506001600160a01b03165f908152600260205260409020439055565b8383610a3482610486565b6001600160a01b0316816001600160a01b031614610a645760405162461bcd60e51b815260040161073390611155565b6001600160a01b038681165f81815260016020908152604080832081518084018b90528251808203850181528184018085528151918601919091208652918452828520968a16808652968452828520429081905586865260029094529190932054928990526060810194909452608084015260a0830152907f5a5084339536bcab65f20799fcc58724588145ca054bd2be626174b27ba156f79060c001610788565b8484610b1182610486565b6001600160a01b0316816001600160a01b031614610b415760405162461bcd60e51b815260040161073390611155565b610b4b83426111fd565b6001600160a01b038881165f81815260016020908152604080832081518084018d9052825180820385018152908301835280519084012084528252808320948a16835293905291909120919091557f5a5084339536bcab65f20799fcc58724588145ca054bd2be626174b27ba156f78686610bc687426111fd565b6001600160a01b038c81165f9081526002602090815260409182902054825196875294909216918501919091528301526060820152608001610938565b80356001600160a01b0381168114610c19575f5ffd5b919050565b634e487b7160e01b5f52604160045260245ffd5b5f82601f830112610c41575f5ffd5b813567ffffffffffffffff811115610c5b57610c5b610c1e565b604051601f8201601f19908116603f0116810167ffffffffffffffff81118282101715610c8a57610c8a610c1e565b604052818152838201602001851015610ca1575f5ffd5b816020850160208301375f918101602001919091529392505050565b5f5f5f60608486031215610ccf575f5ffd5b610cd884610c03565b925060208401359150604084013567ffffffffffffffff811115610cfa575f5ffd5b610d0686828701610c32565b9150509250925092565b5f60208284031215610d20575f5ffd5b610d2982610c03565b9392505050565b5f5f5f60608486031215610d42575f5ffd5b610d4b84610c03565b925060208401359150610d6060408501610c03565b90509250925092565b803560ff81168114610c19575f5ffd5b5f5f5f5f5f5f5f60e0888a031215610d8f575f5ffd5b610d9888610c03565b9650610da660208901610d69565b955060408801359450606088013593506080880135925060a088013567ffffffffffffffff811115610dd6575f5ffd5b610de28a828b01610c32565b979a969950949793969295929450505060c09091013590565b5f5f5f5f5f60a08688031215610e0f575f5ffd5b610e1886610c03565b9450610e2660208701610d69565b93506040860135925060608601359150610e4260808701610c03565b90509295509295909350565b5f5f5f5f60808587031215610e61575f5ffd5b610e6a85610c03565b935060208501359250604085013567ffffffffffffffff811115610e8c575f5ffd5b610e9887828801610c32565b949793965093946060013593505050565b5f5f5f5f5f5f60c08789031215610ebe575f5ffd5b610ec787610c03565b9550610ed560208801610d69565b9450604087013593506060870135925060808701359150610ef860a08801610c03565b90509295509295509295565b5f5f5f5f5f5f5f60e0888a031215610f1a575f5ffd5b610f2388610c03565b9650610f3160208901610d69565b9550604088013594506060880135935060808801359250610f5460a08901610c03565b96999598509396929591949193505060c09091013590565b5f5f5f5f60808587031215610f7f575f5ffd5b610f8885610c03565b935060208501359250610f9d60408601610c03565b9396929550929360600135925050565b5f5f5f5f5f5f60c08789031215610fc2575f5ffd5b610fcb87610c03565b9550610fd960208801610d69565b945060408701359350606087013592506080870135915060a087013567ffffffffffffffff811115611009575f5ffd5b61101589828a01610c32565b9150509295509295509295565b5f5f60408385031215611033575f5ffd5b61103c83610c03565b915061104a60208401610c03565b90509250929050565b5f81518060208401855e5f93019283525090919050565b6001600160f81b03198981168252881660018201526001600160601b0319606088811b821660028401526016830188905286901b1660368201526b73657441747472696275746560a01b604a820152605681018490525f6110ce6076830185611053565b9283525050602001979650505050505050565b6001600160f81b03198881168252871660018201526001600160601b0319606087811b821660028401526016830187905285901b1660368201526e7265766f6b6541747472696275746560881b604a820152605981018390525f6111486079830184611053565b9998505050505050505050565b6020808252600990820152683130b22fb0b1ba37b960b91b604082015260600190565b5f81518084528060208401602086015e5f602082860101526020601f19601f83011685010191505092915050565b848152608060208201525f6111be6080830186611178565b6040830194909452506060015292915050565b634e487b7160e01b5f52601160045260245ffd5b5f600182016111f6576111f66111d1565b5060010190565b80820180821115611210576112106111d1565b9291505056fea2646970667358221220ffea03a3f24235effb9dbf67d0110cafd4756889b43a791129d59b20605572e764736f6c634300081c0033",
  "linkReferences": {},
  "deployedLinkReferences": {},
  "immutableReferences": {},
  "inputSourceName": "project/contracts/EthereumDIDRegistry.sol",
  "buildInfoId": "solc-0_8_28-eafe90f0ae654a5e1b3ea4165e2d7fa8cc53c74e"
}