{
  "_format": "hh3-artifact-1",
  "contractName": "DIDMultisigController",
  "sourceName": "contracts/DIDMultisigController.sol",
  "abi": [
    {
      "inputs": [
        {
          "internalType": "address",
          "name": "_registry",
          "type": "address"
        },
        {
          "internalType": "address[]",
          "name": "_owners",
          "type": "address[]"
        },
        {
          "internalType": "uint256",
          "name": "_quorum",
          "type": "uint256"
        }
      ],
      "stateMutability": "nonpayable",
      "type": "constructor"
    },
    {
      "anonymous": false,
      "inputs": [
        {
          "indexed": true,
          "internalType": "bytes32",
          "name": "id",
          "type": "bytes32"
        },
        {
          "indexed": true,
          "internalType": "address",
          "name": "owner",
          "type": "address"
        }
      ],
      "name": "Approved",
      "type": "event"
    },
    {
      "anonymous": false,
      "inputs": [
        {
          "indexed": true,
          "internalType": "bytes32",
          "name": "id",
          "type": "bytes32"
        }
      ],
      "name": "Executed",
      "type": "event"
    },
    {
      "anonymous": false,
      "inputs": [
        {
          "indexed": true,
          "internalType": "address",
          "name": "newOwner",
          "type": "address"
        }
      ],
      "name": "OwnerAdded",
      "type": "event"
    },
    {
      "anonymous": false,
      "inputs": [
        {
          "indexed": true,
          "internalType": "address",
          "name": "removedOwner",
          "type": "address"
        }
      ],
      "name": "OwnerRemoved",
      "type": "event"
    },
    {
      "anonymous": false,
      "inputs": [
        {
          "indexed": true,
          "internalType": "bytes32",
          "name": "id",
          "type": "bytes32"
        },
        {
          "indexed": false,
          "internalType": "bytes",
          "name": "data",
          "type": "bytes"
        },
        {
          "indexed": false,
          "internalType": "bool",
          "name": "requiresUnanimity",
          "type": "bool"
        }
      ],
      "name": "ProposalCreated",
      "type": "event"
    },
    {
      "anonymous": false,
      "inputs": [
        {
          "indexed": false,
          "internalType": "uint256",
          "name": "newQuorum",
          "type": "uint256"
        }
      ],
      "name": "QuorumUpdated",
      "type": "event"
    },
    {
      "inputs": [
        {
          "internalType": "bytes32",
          "name": "delegateType",
          "type": "bytes32"
        },
        {
          "internalType": "address",
          "name": "delegate",
          "type": "address"
        },
        {
          "internalType": "uint256",
          "name": "validity",
          "type": "uint256"
        }
      ],
      "name": "_addDelegate",
      "outputs": [],
      "stateMutability": "nonpayable",
      "type": "function"
    },
    {
      "inputs": [
        {
          "internalType": "address",
          "name": "newOwner",
          "type": "address"
        }
      ],
      "name": "_addOwner",
      "outputs": [],
      "stateMutability": "nonpayable",
      "type": "function"
    },
    {
      "inputs": [
        {
          "internalType": "address",
          "name": "identity",
          "type": "address"
        },
        {
          "internalType": "address",
          "name": "newOwner",
          "type": "address"
        }
      ],
      "name": "_executeChangeOwner",
      "outputs": [],
      "stateMutability": "nonpayable",
      "type": "function"
    },
    {
      "inputs": [
        {
          "internalType": "address",
          "name": "owner",
          "type": "address"
        }
      ],
      "name": "_removeOwner",
      "outputs": [],
      "stateMutability": "nonpayable",
      "type": "function"
    },
    {
      "inputs": [
        {
          "internalType": "bytes32",
          "name": "name",
          "type": "bytes32"
        },
        {
          "internalType": "bytes",
          "name": "value",
          "type": "bytes"
        },
        {
          "internalType": "uint256",
          "name": "validity",
          "type": "uint256"
        }
      ],
      "name": "_setAttribute",
      "outputs": [],
      "stateMutability": "nonpayable",
      "type": "function"
    },
    {
      "inputs": [
        {
          "internalType": "uint256",
          "name": "newQuorum",
          "type": "uint256"
        }
      ],
      "name": "_setQuorum",
      "outputs": [],
      "stateMutability": "nonpayable",
      "type": "function"
    },
    {
      "inputs": [
        {
          "internalType": "bytes32",
          "name": "id",
          "type": "bytes32"
        }
      ],
      "name": "approve",
      "outputs": [],
      "stateMutability": "nonpayable",
      "type": "function"
    },
    {
      "inputs": [
        {
          "internalType": "address",
          "name": "target",
          "type": "address"
        },
        {
          "internalType": "bytes",
          "name": "data",
          "type": "bytes"
        }
      ],
      "name": "execCall",
      "outputs": [],
      "stateMutability": "nonpayable",
      "type": "function"
    },
    {
      "inputs": [
        {
          "internalType": "address",
          "name": "",
          "type": "address"
        }
      ],
      "name": "isOwner",
      "outputs": [
        {
          "internalType": "bool",
          "name": "",
          "type": "bool"
        }
      ],
      "stateMutability": "view",
      "type": "function"
    },
    {
      "inputs": [
        {
          "internalType": "uint256",
          "name": "",
          "type": "uint256"
        }
      ],
      "name": "owners",
      "outputs": [
        {
          "internalType": "address",
          "name": "",
          "type": "address"
        }
      ],
      "stateMutability": "view",
      "type": "function"
    },
    {
      "inputs": [
        {
          "internalType": "bytes32",
          "name": "",
          "type": "bytes32"
        }
      ],
      "name": "proposals",
      "outputs": [
        {
          "internalType": "bytes",
          "name": "data",
          "type": "bytes"
        },
        {
          "internalType": "uint256",
          "name": "approvals",
          "type": "uint256"
        },
        {
          "internalType": "bool",
          "name": "executed",
          "type": "bool"
        },
        {
          "internalType": "bool",
          "name": "requiresUnanimity",
          "type": "bool"
        },
        {
          "internalType": "address",
          "name": "ownerToRemove",
          "type": "address"
        }
      ],
      "stateMutability": "view",
      "type": "function"
    },
    {
      "inputs": [
        {
          "internalType": "bytes32",
          "name": "delegateType",
          "type": "bytes32"
        },
        {
          "internalType": "address",
          "name": "delegate",
          "type": "address"
        },
        {
          "internalType": "uint256",
          "name": "validity",
          "type": "uint256"
        }
      ],
      "name": "proposeAddDelegate",
      "outputs": [
        {
          "internalType": "bytes32",
          "name": "",
          "type": "bytes32"
        }
      ],
      "stateMutability": "nonpayable",
      "type": "function"
    },
    {
      "inputs": [
        {
          "internalType": "address",
          "name": "newOwner",
          "type": "address"
        }
      ],
      "name": "proposeAddOwner",
      "outputs": [
        {
          "internalType": "bytes32",
          "name": "",
          "type": "bytes32"
        }
      ],
      "stateMutability": "nonpayable",
      "type": "function"
    },
    {
      "inputs": [
        {
          "internalType": "address",
          "name": "identity",
          "type": "address"
        },
        {
          "internalType": "address",
          "name": "newOwner",
          "type": "address"
        }
      ],
      "name": "proposeChangeOwner",
      "outputs": [
        {
          "internalType": "bytes32",
          "name": "",
          "type": "bytes32"
        }
      ],
      "stateMutability": "nonpayable",
      "type": "function"
    },
    {
      "inputs": [
        {
          "internalType": "uint256",
          "name": "newQuorum",
          "type": "uint256"
        }
      ],
      "name": "proposeQuorumUpdate",
      "outputs": [
        {
          "internalType": "bytes32",
          "name": "",
          "type": "bytes32"
        }
      ],
      "stateMutability": "nonpayable",
      "type": "function"
    },
    {
      "inputs": [
        {
          "internalType": "address",
          "name": "owner",
          "type": "address"
        }
      ],
      "name": "proposeRemoveOwner",
      "outputs": [
        {
          "internalType": "bytes32",
          "name": "",
          "type": "bytes32"
        }
      ],
      "stateMutability": "nonpayable",
      "type": "function"
    },
    {
      "inputs": [
        {
          "internalType": "bytes32",
          "name": "name",
          "type": "bytes32"
        },
        {
          "internalType": "bytes",
          "name": "value",
          "type": "bytes"
        },
        {
          "internalType": "uint256",
          "name": "validity",
          "type": "uint256"
        }
      ],
      "name": "proposeSetAttribute",
      "outputs": [
        {
          "internalType": "bytes32",
          "name": "",
          "type": "bytes32"
        }
      ],
      "stateMutability": "nonpayable",
      "type": "function"
    },
    {
      "inputs": [],
      "name": "quorum",
      "outputs": [
        {
          "internalType": "uint256",
          "name": "",
          "type": "uint256"
        }
      ],
      "stateMutability": "view",
      "type": "function"
    },
    {
      "inputs": [],
      "name": "registry",
      "outputs": [
        {
          "internalType": "contract IEthereumDIDRegistry",
          "name": "",
          "type": "address"
        }
      ],
      "stateMutability": "view",
      "type": "function"
    }
  ],
  "bytecode": "0x60a060405234801561000f575f5ffd5b50604051611b40380380611b4083398101604081905261002e9161023a565b5f82511161006f5760405162461bcd60e51b81526020600482015260096024820152686e6f5f6f776e65727360b81b60448201526064015b60405180910390fd5b5f8111801561007f575081518111155b6100b85760405162461bcd60e51b815260206004820152600a6024820152696261645f71756f72756d60b01b6044820152606401610066565b6001600160a01b03831660805260028190555f5b8251811015610202575f8382815181106100e8576100e8610321565b602002602001015190505f6001600160a01b0316816001600160a01b0316036101405760405162461bcd60e51b815260206004820152600a6024820152693d32b937afb7bbb732b960b11b6044820152606401610066565b6001600160a01b0381165f9081526001602052604090205460ff161561019a5760405162461bcd60e51b815260206004820152600f60248201526e323ab83634b1b0ba32afb7bbb732b960891b6044820152606401610066565b6001600160a01b03165f8181526001602081905260408220805460ff191682179055815480820183559180527f290decd9548b62a8d60345a988386fc84ba6bc95484008f6362f93160ef3e56390910180546001600160a01b031916909217909155016100cc565b50505050610335565b80516001600160a01b0381168114610221575f5ffd5b919050565b634e487b7160e01b5f52604160045260245ffd5b5f5f5f6060848603121561024c575f5ffd5b6102558461020b565b60208501519093506001600160401b03811115610270575f5ffd5b8401601f81018613610280575f5ffd5b80516001600160401b0381111561029957610299610226565b604051600582901b90603f8201601f191681016001600160401b03811182821017156102c7576102c7610226565b6040529182526020818401810192908101898411156102e4575f5ffd5b6020850194505b8385101561030a576102fc8561020b565b8152602094850194016102eb565b506040979097015195989697509495945050505050565b634e487b7160e01b5f52603260045260245ffd5b6080516117d76103695f395f8181610236015281816105620152818161075f01528181610a560152610d8c01526117d75ff3fe608060405234801561000f575f5ffd5b506004361061011c575f3560e01c80637af9dda3116100a9578063a53a1adf1161006e578063a53a1adf14610291578063d966403a146102a4578063dd4210bb146102b7578063dd695da6146102ca578063f2a0d0bf146102dd575f5ffd5b80637af9dda31461021e5780637b103999146102315780638ae0a8d5146102585780639dc42f161461026b578063a1d75c1f1461027e575f5ffd5b8063460ab47b116100ef578063460ab47b146101bd57806348cd10c6146101d05780634d376549146101e3578063511bc0f6146101f8578063787448191461020b575f5ffd5b8063025e7c27146101205780631703a018146101505780632f54bf6e1461016757806332ed5b1214610199575b5f5ffd5b61013361012e3660046111f1565b6102f0565b6040516001600160a01b0390911681526020015b60405180910390f35b61015960025481565b604051908152602001610147565b61018961017536600461121f565b60016020525f908152604090205460ff1681565b6040519015158152602001610147565b6101ac6101a73660046111f1565b610317565b60405161014795949392919061126f565b6101596101cb3660046112ae565b6103da565b6101596101de36600461121f565b61047f565b6101f66101f136600461132a565b61052c565b005b6101f661020636600461121f565b6105d2565b61015961021936600461132a565b61067b565b6101f661022c366004611379565b61070d565b6101337f000000000000000000000000000000000000000000000000000000000000000081565b6101f66102663660046111f1565b6107bb565b6101f661027936600461121f565b61085e565b6101f661028c3660046112ae565b610a10565b6101f661029f3660046111f1565b610ab1565b6101596102b236600461121f565b610c3d565b6101596102c5366004611379565b610cf1565b6101f66102d83660046113ae565b610d5c565b6101596102eb3660046111f1565b610f57565b5f81815481106102fe575f80fd5b5f918252602090912001546001600160a01b0316905081565b60036020525f9081526040902080548190610331906113ff565b80601f016020809104026020016040519081016040528092919081815260200182805461035d906113ff565b80156103a85780601f1061037f576101008083540402835291602001916103a8565b820191905f5260205f20905b81548152906001019060200180831161038b57829003601f168201915b50505050600183015460029093015491929160ff8082169250610100820416906201000090046001600160a01b031685565b335f9081526001602052604081205460ff166104115760405162461bcd60e51b815260040161040890611437565b60405180910390fd5b6040516001600160a01b038085166024830152831660448201526104769063a1d75c1f60e01b906064015b60408051601f198184030181529190526020810180516001600160e01b03166001600160e01b03199093169290921790915260015f610fa4565b90505b92915050565b335f9081526001602052604081205460ff166104ad5760405162461bcd60e51b815260040161040890611437565b6001600160a01b0382165f9081526001602052604090205460ff16156105055760405162461bcd60e51b815260206004820152600d60248201526c30b63932b0b23cafb7bbb732b960991b6044820152606401610408565b6040516001600160a01b03831660248201526104799063288de07b60e11b9060440161043c565b33301461054b5760405162461bcd60e51b81526004016104089061145a565b604051631eb52c2960e21b81526001600160a01b037f00000000000000000000000000000000000000000000000000000000000000001690637ad4b0a49061059f90309088908890889088906004016114a5565b5f604051808303815f87803b1580156105b6575f5ffd5b505af11580156105c8573d5f5f3e3d5ffd5b5050505050505050565b3330146105f15760405162461bcd60e51b81526004016104089061145a565b6001600160a01b0381165f818152600160208190526040808320805460ff191683179055825491820183558280527f290decd9548b62a8d60345a988386fc84ba6bc95484008f6362f93160ef3e56390910180546001600160a01b03191684179055517f994a936646fe87ffe4f1e469d3d6aa417d6b855598397f323de5b449f765f0c39190a250565b335f9081526001602052604081205460ff166106a95760405162461bcd60e51b815260040161040890611437565b610704634d37654960e01b868686866040516024016106cb94939291906114de565b60408051601f198184030181529190526020810180516001600160e01b03166001600160e01b0319909316929092179091525f80610fa4565b95945050505050565b33301461072c5760405162461bcd60e51b81526004016104089061145a565b60405163538346b360e11b8152306004820152602481018490526001600160a01b038381166044830152606482018390527f0000000000000000000000000000000000000000000000000000000000000000169063a7068d66906084015f604051808303815f87803b1580156107a0575f5ffd5b505af11580156107b2573d5f5f3e3d5ffd5b50505050505050565b3330146107da5760405162461bcd60e51b81526004016104089061145a565b5f811180156107ea57505f548111155b6108235760405162461bcd60e51b815260206004820152600a6024820152696261645f71756f72756d60b01b6044820152606401610408565b60028190556040518181527ff18f88786aae85a652aadb99a82462616489a33370c9bcc7b245906812ef7cd19060200160405180910390a150565b33301461087d5760405162461bcd60e51b81526004016104089061145a565b6002545f5461088e9060019061151c565b10156108cf5760405162461bcd60e51b815260206004820152601060248201526f38bab7b93ab6afbb34b7b630ba34b7b760811b6044820152606401610408565b6001600160a01b0381165f908152600160205260408120805460ff191690555b5f548110156109d957816001600160a01b03165f82815481106109145761091461152f565b5f918252602090912001546001600160a01b0316036109d1575f805461093c9060019061151c565b8154811061094c5761094c61152f565b5f91825260208220015481546001600160a01b039091169190839081106109755761097561152f565b5f918252602082200180546001600160a01b0319166001600160a01b0393909316929092179091558054806109ac576109ac611543565b5f8281526020902081015f1990810180546001600160a01b03191690550190556109d9565b6001016108ef565b506040516001600160a01b038216907f58619076adf5bb0943d100ef88d52d7c3fd691b19d3a9071b555b651fbf418da905f90a250565b333014610a2f5760405162461bcd60e51b81526004016104089061145a565b60405163f00d4b5d60e01b81526001600160a01b03838116600483015282811660248301527f0000000000000000000000000000000000000000000000000000000000000000169063f00d4b5d906044015f604051808303815f87803b158015610a97575f5ffd5b505af1158015610aa9573d5f5f3e3d5ffd5b505050505050565b335f9081526001602052604090205460ff16610adf5760405162461bcd60e51b815260040161040890611437565b5f81815260036020526040902080548190610af9906113ff565b90505f03610b375760405162461bcd60e51b815260206004820152600b60248201526a1b9bd7dc1c9bdc1bdcd85b60aa1b6044820152606401610408565b600281015460ff1615610b7f5760405162461bcd60e51b815260206004820152601060248201526f185b1c9958591e57d95e1958dd5d195960821b6044820152606401610408565b335f90815260038201602052604090205460ff1615610bd35760405162461bcd60e51b815260206004820152601060248201526f185b1c9958591e57d85c1c1c9bdd995960821b6044820152606401610408565b335f9081526003820160205260408120805460ff191660019081179091558201805491610bff83611557565b9091555050604051339083907f90b535106f433f3869de4725076776361dc9946b091db11206fa1b526a85ecd4905f90a3610c39826110b5565b5050565b335f9081526001602052604081205460ff16610c6b5760405162461bcd60e51b815260040161040890611437565b6001600160a01b0382165f9081526001602052604090205460ff16610ca25760405162461bcd60e51b815260040161040890611437565b604080516001600160a01b0384166024808301919091528251808303909101815260449091019091526020810180516001600160e01b0316634ee2178b60e11b17905261047990600184610fa4565b335f9081526001602052604081205460ff16610d1f5760405162461bcd60e51b815260040161040890611437565b604051602481018590526001600160a01b038416604482015260648101839052610d5490637af9dda360e01b906084016106cb565b949350505050565b335f9081526001602052604090205460ff16610d8a5760405162461bcd60e51b815260040161040890611437565b7f00000000000000000000000000000000000000000000000000000000000000006001600160a01b0316836001600160a01b031603610eb9576024811015610e0a5760405162461bcd60e51b81526020600482015260136024820152720d2dcecc2d8d2c8bec8c2e8c2bed8cadccee8d606b1b6044820152606401610408565b5f610e18826004818661156f565b8080601f0160208091040260200160405190810160405280939291908181526020018383808284375f920182905250845194955093610e64935085016020908101925085019050611596565b9050306001600160a01b03821603610eb65760405162461bcd60e51b81526020600482015260156024820152743ab9b2afb83937b837b9b0b62fb337b92fb9b2b63360591b6044820152606401610408565b50505b5f836001600160a01b03168383604051610ed49291906115b1565b5f604051808303815f865af19150503d805f8114610f0d576040519150601f19603f3d011682016040523d82523d5f602084013e610f12565b606091505b5050905080610f515760405162461bcd60e51b815260206004820152600b60248201526a18d85b1b17d9985a5b195960aa1b6044820152606401610408565b50505050565b335f9081526001602052604081205460ff16610f855760405162461bcd60e51b815260040161040890611437565b6040516024810183905261047990638ae0a8d560e01b9060440161043c565b5f308442604051602001610fba939291906115c0565b60408051601f1981840301815291815281516020928301205f818152600390935291208054919250908190610fee906113ff565b15905061102e5760405162461bcd60e51b815260206004820152600e60248201526d616c72656164795f65786973747360901b6044820152606401610408565b806110398682611652565b50600281018054610100600160b01b0319166101008615150262010000600160b01b03191617620100006001600160a01b0386160217905560405182907f3a65e3a2b5f0a946f1bcda04bf8421e87e7f20e8b490a6c7facc4a0374bba570906110a5908890889061170d565b60405180910390a2509392505050565b5f8181526003602052604081206002810154909190610100900460ff161561110d5760028201546201000090046001600160a01b031615611105575f546110fe9060019061151c565b9050611112565b505f54611112565b506002545b808260010154106111ec5760028201805460ff191660011790556040515f90309061113e908590611730565b5f604051808303815f865af19150503d805f8114611177576040519150601f19603f3d011682016040523d82523d5f602084013e61117c565b606091505b50509050806111c05760405162461bcd60e51b815260206004820152601060248201526f195e1958dd5d1a5bdb97d9985a5b195960821b6044820152606401610408565b60405184907fa74c8847d513feba22a0f0cb38d53081abf97562cdb293926ba243689e7c41ca905f90a2505b505050565b5f60208284031215611201575f5ffd5b5035919050565b6001600160a01b038116811461121c575f5ffd5b50565b5f6020828403121561122f575f5ffd5b813561123a81611208565b9392505050565b5f81518084528060208401602086015e5f602082860101526020601f19601f83011685010191505092915050565b60a081525f61128160a0830188611241565b602083019690965250921515604084015290151560608301526001600160a01b0316608090910152919050565b5f5f604083850312156112bf575f5ffd5b82356112ca81611208565b915060208301356112da81611208565b809150509250929050565b5f5f83601f8401126112f5575f5ffd5b50813567ffffffffffffffff81111561130c575f5ffd5b602083019150836020828501011115611323575f5ffd5b9250929050565b5f5f5f5f6060858703121561133d575f5ffd5b84359350602085013567ffffffffffffffff81111561135a575f5ffd5b611366878288016112e5565b9598909750949560400135949350505050565b5f5f5f6060848603121561138b575f5ffd5b83359250602084013561139d81611208565b929592945050506040919091013590565b5f5f5f604084860312156113c0575f5ffd5b83356113cb81611208565b9250602084013567ffffffffffffffff8111156113e6575f5ffd5b6113f2868287016112e5565b9497909650939450505050565b600181811c9082168061141357607f821691505b60208210810361143157634e487b7160e01b5f52602260045260245ffd5b50919050565b6020808252600990820152683737ba2fb7bbb732b960b91b604082015260600190565b60208082526009908201526837b7363cafb9b2b63360b91b604082015260600190565b81835281816020850137505f828201602090810191909152601f909101601f19169091010190565b60018060a01b0386168152846020820152608060408201525f6114cc60808301858761147d565b90508260608301529695505050505050565b848152606060208201525f6114f760608301858761147d565b905082604083015295945050505050565b634e487b7160e01b5f52601160045260245ffd5b8181038181111561047957610479611508565b634e487b7160e01b5f52603260045260245ffd5b634e487b7160e01b5f52603160045260245ffd5b5f6001820161156857611568611508565b5060010190565b5f5f8585111561157d575f5ffd5b83861115611589575f5ffd5b5050820193919092039150565b5f602082840312156115a6575f5ffd5b815161123a81611208565b818382375f9101908152919050565b6001600160a01b03841681526060602082018190525f906115e390830185611241565b9050826040830152949350505050565b634e487b7160e01b5f52604160045260245ffd5b601f8211156111ec57805f5260205f20601f840160051c8101602085101561162c5750805b601f840160051c820191505b8181101561164b575f8155600101611638565b5050505050565b815167ffffffffffffffff81111561166c5761166c6115f3565b6116808161167a84546113ff565b84611607565b6020601f8211600181146116b2575f831561169b5750848201515b5f19600385901b1c1916600184901b17845561164b565b5f84815260208120601f198516915b828110156116e157878501518255602094850194600190920191016116c1565b50848210156116fe57868401515f19600387901b60f8161c191681555b50505050600190811b01905550565b604081525f61171f6040830185611241565b905082151560208301529392505050565b5f5f835461173d816113ff565b600182168015611754576001811461176957611796565b60ff1983168652811515820286019350611796565b865f5260205f205f5b8381101561178e57815488820152600190910190602001611772565b505081860193505b50919594505050505056fea2646970667358221220d7d2196e81773503f98b0139dce2b9cd935fd60189d8a499a426de90d859d62e64736f6c634300081c0033",
  "linkReferences": {},
  "deployedLinkReferences": {},
  "immutableReferences": {
    "52": [
      {
        "length": 32,
        "start": 566
      },
      {
        "length": 32,
        "start": 1378
      },
      {
        "length": 32,
        "start": 1887
      },
      {
        "length": 32,
        "start": 2646
      },
      {
        "length": 32,
        "start": 3468
      }
    ]
  },
  "inputSourceName": "project/contracts/DIDMultisigController.sol",
  "buildInfoId": "solc-0_8_28-6d748ba5b73d5485295d0e70f5a8141317d861af"
}