{"contracts/DIDRegistry.sol":{"DIDRegistry":{"abi":[{"anonymous":false,"inputs":[{"indexed":true,"internalType":"address","name":"identity","type":"address"},{"indexed":false,"internalType":"bytes32","name":"name","type":"bytes32"},{"indexed":false,"internalType":"bytes","name":"value","type":"bytes"},{"indexed":false,"internalType":"uint256","name":"validTo","type":"uint256"},{"indexed":false,"internalType":"uint256","name":"previousChange","type":"uint256"}],"name":"DIDAttributeChanged","type":"event"},{"anonymous":false,"inputs":[{"indexed":true,"internalType":"address","name":"identity","type":"address"},{"indexed":false,"internalType":"bytes32","name":"delegateType","type":"bytes32"},{"indexed":false,"internalType":"address","name":"delegate","type":"address"},{"indexed":false,"internalType":"uint256","name":"validTo","type":"uint256"},{"indexed":false,"internalType":"uint256","name":"previousChange","type":"uint256"}],"name":"DIDDelegateChanged","type":"event"},{"anonymous":false,"inputs":[{"indexed":true,"internalType":"address","name":"identity","type":"address"},{"indexed":false,"internalType":"address","name":"owner","type":"address"},{"indexed":false,"internalType":"uint256","name":"previousChange","type":"uint256"}],"name":"DIDOwnerChanged","type":"event"},{"inputs":[{"internalType":"address","name":"identity","type":"address"},{"internalType":"bytes32","name":"delegateType","type":"bytes32"},{"internalType":"address","name":"delegate","type":"address"},{"internalType":"uint256","name":"validity","type":"uint256"}],"name":"addDelegate","outputs":[],"stateMutability":"nonpayable","type":"function"},{"inputs":[{"internalType":"address","name":"","type":"address"},{"internalType":"bytes32","name":"","type":"bytes32"}],"name":"attributeExpiry","outputs":[{"internalType":"uint256","name":"","type":"uint256"}],"stateMutability":"view","type":"function"},{"inputs":[{"internalType":"address","name":"","type":"address"},{"internalType":"bytes32","name":"","type":"bytes32"}],"name":"attributes","outputs":[{"internalType":"bytes","name":"","type":"bytes"}],"stateMutability":"view","type":"function"},{"inputs":[{"internalType":"address","name":"identity","type":"address"},{"internalType":"address","name":"newOwner","type":"address"}],"name":"changeOwner","outputs":[],"stateMutability":"nonpayable","type":"function"},{"inputs":[{"internalType":"address","name":"","type":"address"}],"name":"changed","outputs":[{"internalType":"uint256","name":"","type":"uint256"}],"stateMutability":"view","type":"function"},{"inputs":[{"internalType":"address","name":"","type":"address"},{"internalType":"bytes32","name":"","type":"bytes32"},{"internalType":"address","name":"","type":"address"}],"name":"delegates","outputs":[{"internalType":"uint256","name":"","type":"uint256"}],"stateMutability":"view","type":"function"},{"inputs":[{"internalType":"address","name":"identity","type":"address"},{"internalType":"bytes32","name":"name","type":"bytes32"}],"name":"getAttribute","outputs":[{"internalType":"bytes","name":"","type":"bytes"}],"stateMutability":"view","type":"function"},{"inputs":[{"internalType":"address","name":"identity","type":"address"}],"name":"identityOwner","outputs":[{"internalType":"address","name":"","type":"address"}],"stateMutability":"view","type":"function"},{"inputs":[{"internalType":"address","name":"","type":"address"}],"name":"owners","outputs":[{"internalType":"address","name":"","type":"address"}],"stateMutability":"view","type":"function"},{"inputs":[{"internalType":"address","name":"identity","type":"address"},{"internalType":"bytes32","name":"name","type":"bytes32"}],"name":"revokeAttribute","outputs":[],"stateMutability":"nonpayable","type":"function"},{"inputs":[{"internalType":"address","name":"identity","type":"address"},{"internalType":"bytes32","name":"delegateType","type":"bytes32"},{"internalType":"address","name":"delegate","type":"address"}],"name":"revokeDelegate","outputs":[],"stateMutability":"nonpayable","type":"function"},{"inputs":[{"internalType":"address","name":"identity","type":"address"},{"internalType":"bytes32","name":"name","type":"bytes32"},{"internalType":"bytes","name":"value","type":"bytes"},{"internalType":"uint256","name":"validity","type":"uint256"}],"name":"setAttribute","outputs":[],"stateMutability":"nonpayable","type":"function"},{"inputs":[{"internalType":"address","name":"identity","type":"address"},{"internalType":"bytes32","name":"delegateType","type":"bytes32"},{"internalType":"address","name":"delegate","type":"address"}],"name":"validDelegate","outputs":[{"internalType":"bool","name":"","type":"bool"}],"stateMutability":"view","type":"function"}],"evm":{"bytecode":{"linkReferences":{},"object":"608060405234801561001057600080fd5b50610dfa806100206000396000f3fe608060405234801561001057600080fd5b50600436106100cf5760003560e01c80637ffcce5a1161008c578063a7068d6611610066578063a7068d6614610245578063dd1616d814610258578063f00d4b5d1461026b578063f96d0f9f1461027e57600080fd5b80637ffcce5a146101f457806380b29f7c1461021f5780638733d4e81461023257600080fd5b8063022914a7146100d45780630d44625b1461011a578063163f669114610159578063622b2a3c14610179578063719d0d30146101cc5780637ad4b0a4146101df575b600080fd5b6100fd6100e23660046109ff565b6000602081905290815260409020546001600160a01b031681565b6040516001600160a01b0390911681526020015b60405180910390f35b61014b610128366004610a1a565b600260209081526000938452604080852082529284528284209052825290205481565b604051908152602001610111565b61016c610167366004610a56565b61029e565b6040516101119190610a80565b6101bc610187366004610a1a565b6001600160a01b0392831660009081526002602090815260408083209483529381528382209290941681529252902054421090565b6040519015158152602001610111565b61016c6101da366004610a56565b610396565b6101f26101ed366004610ace565b61043b565b005b61014b610202366004610a56565b600460209081526000928352604080842090915290825290205481565b6101f261022d366004610a1a565b6105f1565b6100fd6102403660046109ff565b6106c5565b6101f2610253366004610b5d565b6106f6565b6101f2610266366004610a56565b6107db565b6101f2610279366004610ba1565b6108db565b61014b61028c3660046109ff565b60016020526000908152604090205481565b6001600160a01b038216600090815260046020908152604080832084845290915290205460609042101561037f576001600160a01b0383166000908152600360209081526040808320858452909152902080546102fa90610bd4565b80601f016020809104026020016040519081016040528092919081815260200182805461032690610bd4565b80156103735780601f1061034857610100808354040283529160200191610373565b820191906000526020600020905b81548152906001019060200180831161035657829003601f168201915b50505050509050610390565b506040805160208101909152600081525b92915050565b6003602090815260009283526040808420909152908252902080546103ba90610bd4565b80601f01602080910402602001604051908101604052809291908181526020018280546103e690610bd4565b80156104335780601f1061040857610100808354040283529160200191610433565b820191906000526020600020905b81548152906001019060200180831161041657829003601f168201915b505050505081565b600033610447876106c5565b6001600160a01b0388811660009081526002602090815260408083207fe0ad162bb67fd33e3d9148fcdace40c0935aba96125668acb23f7ecabc42305484528252808320338452909152902054911691909114915042107fa382bab1a2bdcbe966273ed86557085b150c621194d848bbc94bd898ca6fd8be861482806104d257508180156104d25750805b61052f5760405162461bcd60e51b8152602060048201526024808201527f4e6f7420617574686f72697a656420746f2073657420746869732061747472696044820152636275746560e01b60648201526084015b60405180910390fd5b6001600160a01b03881660009081526003602090815260408083208a8452909152902061055d868883610c73565b50600061056a8542610d34565b6001600160a01b038a1660008181526004602090815260408083208d845282528083208590558383526001909152908190208054439091559051929350917f18ab6b2ae3d64306c00ce663125f2bd680e441a098de1635bd7ad8b0d44965e4906105dd908c908c908c9088908890610d55565b60405180910390a250505050505050505050565b82336105fc826106c5565b6001600160a01b0316148061061957506001600160a01b03811633145b6106355760405162461bcd60e51b815260040161052690610d9c565b6001600160a01b03848116600081815260026020908152604080832088845282528083209487168084529482528083208390558383526001825280832043908190558151898152928301959095528101919091526060810192909252907f5a5084339536bcab65f20799fcc58724588145ca054bd2be626174b27ba156f79060800160405180910390a250505050565b6001600160a01b03808216600090815260208190526040812054909116806106ed57826106ef565b805b9392505050565b8333610701826106c5565b6001600160a01b0316148061071e57506001600160a01b03811633145b61073a5760405162461bcd60e51b815260040161052690610d9c565b60006107468342610d34565b6001600160a01b0387811660008181526002602090815260408083208b84528252808320948a168084529482528083208690558383526001825291829020439081905582518b81529182019490945290810184905260608101929092529192507f5a5084339536bcab65f20799fcc58724588145ca054bd2be626174b27ba156f79060800160405180910390a2505050505050565b81336107e6826106c5565b6001600160a01b0316148061080357506001600160a01b03811633145b61081f5760405162461bcd60e51b815260040161052690610d9c565b6001600160a01b0383166000908152600360209081526040808320858452909152812061084b9161098d565b6001600160a01b038316600081815260046020908152604080832086845282528083208390558383526001909152808220439081905590517f18ab6b2ae3d64306c00ce663125f2bd680e441a098de1635bd7ad8b0d44965e4926108ce928783526080602084018190526000908401526040830191909152606082015260a00190565b60405180910390a2505050565b81336108e6826106c5565b6001600160a01b0316148061090357506001600160a01b03811633145b61091f5760405162461bcd60e51b815260040161052690610d9c565b6001600160a01b0383811660008181526020818152604080832080546001600160a01b03191695881695861790556001825291829020439081905582519485529084015290917f38a5a6e68f30ed1ab45860a4afb34bcb2fc00f22ca462d249b8a8d40cda6f7a391016108ce565b50805461099990610bd4565b6000825580601f106109a9575050565b601f0160209004906000526020600020908101906109c791906109ca565b50565b5b808211156109df57600081556001016109cb565b5090565b80356001600160a01b03811681146109fa57600080fd5b919050565b600060208284031215610a1157600080fd5b6106ef826109e3565b600080600060608486031215610a2f57600080fd5b610a38846109e3565b925060208401359150610a4d604085016109e3565b90509250925092565b60008060408385031215610a6957600080fd5b610a72836109e3565b946020939093013593505050565b600060208083528351808285015260005b81811015610aad57858101830151858201604001528201610a91565b506000604082860101526040601f19601f8301168501019250505092915050565b600080600080600060808688031215610ae657600080fd5b610aef866109e3565b945060208601359350604086013567ffffffffffffffff80821115610b1357600080fd5b818801915088601f830112610b2757600080fd5b813581811115610b3657600080fd5b896020828501011115610b4857600080fd5b96999598505060200195606001359392505050565b60008060008060808587031215610b7357600080fd5b610b7c856109e3565b935060208501359250610b91604086016109e3565b9396929550929360600135925050565b60008060408385031215610bb457600080fd5b610bbd836109e3565b9150610bcb602084016109e3565b90509250929050565b600181811c90821680610be857607f821691505b602082108103610c0857634e487b7160e01b600052602260045260246000fd5b50919050565b634e487b7160e01b600052604160045260246000fd5b601f821115610c6e57600081815260208120601f850160051c81016020861015610c4b5750805b601f850160051c820191505b81811015610c6a57828155600101610c57565b5050505b505050565b67ffffffffffffffff831115610c8b57610c8b610c0e565b610c9f83610c998354610bd4565b83610c24565b6000601f841160018114610cd35760008515610cbb5750838201355b600019600387901b1c1916600186901b178355610d2d565b600083815260209020601f19861690835b82811015610d045786850135825560209485019460019092019101610ce4565b5086821015610d215760001960f88860031b161c19848701351681555b505060018560011b0183555b5050505050565b8082018082111561039057634e487b7160e01b600052601160045260246000fd5b85815260806020820152836080820152838560a0830137600060a08583010152600060a0601f19601f87011683010190508360408301528260608301529695505050505050565b6020808252600e908201526d139bdd08185d5d1a1bdc9a5e995960921b60408201526060019056fea26469706673582212205cb8e50075f66322b8547adef93e8517ed759b9a8ab6bee7781e2fe0c5e226da64736f6c63430008140033","opcodes":"PUSH1 0x80 PUSH1 0x40 MSTORE CALLVALUE DUP1 ISZERO PUSH2 0x10 JUMPI PUSH1 0x0 DUP1 REVERT JUMPDEST POP PUSH2 0xDFA DUP1 PUSH2 0x20 PUSH1 0x0 CODECOPY PUSH1 0x0 RETURN INVALID PUSH1 0x80 PUSH1 0x40 MSTORE CALLVALUE DUP1 ISZERO PUSH2 0x10 JUMPI PUSH1 0x0 DUP1 REVERT JUMPDEST POP PUSH1 0x4 CALLDATASIZE LT PUSH2 0xCF JUMPI PUSH1 0x0 CALLDATALOAD PUSH1 0xE0 SHR DUP1 PUSH4 0x7FFCCE5A GT PUSH2 0x8C JUMPI DUP1 PUSH4 0xA7068D66 GT PUSH2 0x66 JUMPI DUP1 PUSH4 0xA7068D66 EQ PUSH2 0x245 JUMPI DUP1 PUSH4 0xDD1616D8 EQ PUSH2 0x258 JUMPI DUP1 PUSH4 0xF00D4B5D EQ PUSH2 0x26B JUMPI DUP1 PUSH4 0xF96D0F9F EQ PUSH2 0x27E JUMPI PUSH1 0x0 DUP1 REVERT JUMPDEST DUP1 PUSH4 0x7FFCCE5A EQ PUSH2 0x1F4 JUMPI DUP1 PUSH4 0x80B29F7C EQ PUSH2 0x21F JUMPI DUP1 PUSH4 0x8733D4E8 EQ PUSH2 0x232 JUMPI PUSH1 0x0 DUP1 REVERT JUMPDEST DUP1 PUSH4 0x22914A7 EQ PUSH2 0xD4 JUMPI DUP1 PUSH4 0xD44625B EQ PUSH2 0x11A JUMPI DUP1 PUSH4 0x163F6691 EQ PUSH2 0x159 JUMPI DUP1 PUSH4 0x622B2A3C EQ PUSH2 0x179 JUMPI DUP1 PUSH4 0x719D0D30 EQ PUSH2 0x1CC JUMPI DUP1 PUSH4 0x7AD4B0A4 EQ PUSH2 0x1DF JUMPI JUMPDEST PUSH1 0x0 DUP1 REVERT JUMPDEST PUSH2 0xFD PUSH2 0xE2 CALLDATASIZE PUSH1 0x4 PUSH2 0x9FF JUMP JUMPDEST PUSH1 0x0 PUSH1 0x20 DUP2 SWAP1 MSTORE SWAP1 DUP2 MSTORE PUSH1 0x40 SWAP1 KECCAK256 SLOAD PUSH1 0x1 PUSH1 0x1 PUSH1 0xA0 SHL SUB AND DUP2 JUMP JUMPDEST PUSH1 0x40 MLOAD PUSH1 0x1 PUSH1 0x1 PUSH1 0xA0 SHL SUB SWAP1 SWAP2 AND DUP2 MSTORE PUSH1 0x20 ADD JUMPDEST PUSH1 0x40 MLOAD DUP1 SWAP2 SUB SWAP1 RETURN JUMPDEST PUSH2 0x14B PUSH2 0x128 CALLDATASIZE PUSH1 0x4 PUSH2 0xA1A JUMP JUMPDEST PUSH1 0x2 PUSH1 0x20 SWAP1 DUP2 MSTORE PUSH1 0x0 SWAP4 DUP5 MSTORE PUSH1 0x40 DUP1 DUP6 KECCAK256 DUP3 MSTORE SWAP3 DUP5 MSTORE DUP3 DUP5 KECCAK256 SWAP1 MSTORE DUP3 MSTORE SWAP1 KECCAK256 SLOAD DUP2 JUMP JUMPDEST PUSH1 0x40 MLOAD SWAP1 DUP2 MSTORE PUSH1 0x20 ADD PUSH2 0x111 JUMP JUMPDEST PUSH2 0x16C PUSH2 0x167 CALLDATASIZE PUSH1 0x4 PUSH2 0xA56 JUMP JUMPDEST PUSH2 0x29E JUMP JUMPDEST PUSH1 0x40 MLOAD PUSH2 0x111 SWAP2 SWAP1 PUSH2 0xA80 JUMP JUMPDEST PUSH2 0x1BC PUSH2 0x187 CALLDATASIZE PUSH1 0x4 PUSH2 0xA1A JUMP JUMPDEST PUSH1 0x1 PUSH1 0x1 PUSH1 0xA0 SHL SUB SWAP3 DUP4 AND PUSH1 0x0 SWAP1 DUP2 MSTORE PUSH1 0x2 PUSH1 0x20 SWAP1 DUP2 MSTORE PUSH1 0x40 DUP1 DUP4 KECCAK256 SWAP5 DUP4 MSTORE SWAP4 DUP2 MSTORE DUP4 DUP3 KECCAK256 SWAP3 SWAP1 SWAP5 AND DUP2 MSTORE SWAP3 MSTORE SWAP1 KECCAK256 SLOAD TIMESTAMP LT SWAP1 JUMP JUMPDEST PUSH1 0x40 MLOAD SWAP1 ISZERO ISZERO DUP2 MSTORE PUSH1 0x20 ADD PUSH2 0x111 JUMP JUMPDEST PUSH2 0x16C PUSH2 0x1DA CALLDATASIZE PUSH1 0x4 PUSH2 0xA56 JUMP JUMPDEST PUSH2 0x396 JUMP JUMPDEST PUSH2 0x1F2 PUSH2 0x1ED CALLDATASIZE PUSH1 0x4 PUSH2 0xACE JUMP JUMPDEST PUSH2 0x43B JUMP JUMPDEST STOP JUMPDEST PUSH2 0x14B PUSH2 0x202 CALLDATASIZE PUSH1 0x4 PUSH2 0xA56 JUMP JUMPDEST PUSH1 0x4 PUSH1 0x20 SWAP1 DUP2 MSTORE PUSH1 0x0 SWAP3 DUP4 MSTORE PUSH1 0x40 DUP1 DUP5 KECCAK256 SWAP1 SWAP2 MSTORE SWAP1 DUP3 MSTORE SWAP1 KECCAK256 SLOAD DUP2 JUMP JUMPDEST PUSH2 0x1F2 PUSH2 0x22D CALLDATASIZE PUSH1 0x4 PUSH2 0xA1A JUMP JUMPDEST PUSH2 0x5F1 JUMP JUMPDEST PUSH2 0xFD PUSH2 0x240 CALLDATASIZE PUSH1 0x4 PUSH2 0x9FF JUMP JUMPDEST PUSH2 0x6C5 JUMP JUMPDEST PUSH2 0x1F2 PUSH2 0x253 CALLDATASIZE PUSH1 0x4 PUSH2 0xB5D JUMP JUMPDEST PUSH2 0x6F6 JUMP JUMPDEST PUSH2 0x1F2 PUSH2 0x266 CALLDATASIZE PUSH1 0x4 PUSH2 0xA56 JUMP JUMPDEST PUSH2 0x7DB JUMP JUMPDEST PUSH2 0x1F2 PUSH2 0x279 CALLDATASIZE PUSH1 0x4 PUSH2 0xBA1 JUMP JUMPDEST PUSH2 0x8DB JUMP JUMPDEST PUSH2 0x14B PUSH2 0x28C CALLDATASIZE PUSH1 0x4 PUSH2 0x9FF JUMP JUMPDEST PUSH1 0x1 PUSH1 0x20 MSTORE PUSH1 0x0 SWAP1 DUP2 MSTORE PUSH1 0x40 SWAP1 KECCAK256 SLOAD DUP2 JUMP JUMPDEST PUSH1 0x1 PUSH1 0x1 PUSH1 0xA0 SHL SUB DUP3 AND PUSH1 0x0 SWAP1 DUP2 MSTORE PUSH1 0x4 PUSH1 0x20 SWAP1 DUP2 MSTORE PUSH1 0x40 DUP1 DUP4 KECCAK256 DUP5 DUP5 MSTORE SWAP1 SWAP2 MSTORE SWAP1 KECCAK256 SLOAD PUSH1 0x60 SWAP1 TIMESTAMP LT ISZERO PUSH2 0x37F JUMPI PUSH1 0x1 PUSH1 0x1 PUSH1 0xA0 SHL SUB DUP4 AND PUSH1 0x0 SWAP1 DUP2 MSTORE PUSH1 0x3 PUSH1 0x20 SWAP1 DUP2 MSTORE PUSH1 0x40 DUP1 DUP4 KECCAK256 DUP6 DUP5 MSTORE SWAP1 SWAP2 MSTORE SWAP1 KECCAK256 DUP1 SLOAD PUSH2 0x2FA SWAP1 PUSH2 0xBD4 JUMP JUMPDEST DUP1 PUSH1 0x1F ADD PUSH1 0x20 DUP1 SWAP2 DIV MUL PUSH1 0x20 ADD PUSH1 0x40 MLOAD SWAP1 DUP2 ADD PUSH1 0x40 MSTORE DUP1 SWAP3 SWAP2 SWAP1 DUP2 DUP2 MSTORE PUSH1 0x20 ADD DUP3 DUP1 SLOAD PUSH2 0x326 SWAP1 PUSH2 0xBD4 JUMP JUMPDEST DUP1 ISZERO PUSH2 0x373 JUMPI DUP1 PUSH1 0x1F LT PUSH2 0x348 JUMPI PUSH2 0x100 DUP1 DUP4 SLOAD DIV MUL DUP4 MSTORE SWAP2 PUSH1 0x20 ADD SWAP2 PUSH2 0x373 JUMP JUMPDEST DUP3 ADD SWAP2 SWAP1 PUSH1 0x0 MSTORE PUSH1 0x20 PUSH1 0x0 KECCAK256 SWAP1 JUMPDEST DUP2 SLOAD DUP2 MSTORE SWAP1 PUSH1 0x1 ADD SWAP1 PUSH1 0x20 ADD DUP1 DUP4 GT PUSH2 0x356 JUMPI DUP3 SWAP1 SUB PUSH1 0x1F AND DUP3 ADD SWAP2 JUMPDEST POP POP POP POP POP SWAP1 POP PUSH2 0x390 JUMP JUMPDEST POP PUSH1 0x40 DUP1 MLOAD PUSH1 0x20 DUP2 ADD SWAP1 SWAP2 MSTORE PUSH1 0x0 DUP2 MSTORE JUMPDEST SWAP3 SWAP2 POP POP JUMP JUMPDEST PUSH1 0x3 PUSH1 0x20 SWAP1 DUP2 MSTORE PUSH1 0x0 SWAP3 DUP4 MSTORE PUSH1 0x40 DUP1 DUP5 KECCAK256 SWAP1 SWAP2 MSTORE SWAP1 DUP3 MSTORE SWAP1 KECCAK256 DUP1 SLOAD PUSH2 0x3BA SWAP1 PUSH2 0xBD4 JUMP JUMPDEST DUP1 PUSH1 0x1F ADD PUSH1 0x20 DUP1 SWAP2 DIV MUL PUSH1 0x20 ADD PUSH1 0x40 MLOAD SWAP1 DUP2 ADD PUSH1 0x40 MSTORE DUP1 SWAP3 SWAP2 SWAP1 DUP2 DUP2 MSTORE PUSH1 0x20 ADD DUP3 DUP1 SLOAD PUSH2 0x3E6 SWAP1 PUSH2 0xBD4 JUMP JUMPDEST DUP1 ISZERO PUSH2 0x433 JUMPI DUP1 PUSH1 0x1F LT PUSH2 0x408 JUMPI PUSH2 0x100 DUP1 DUP4 SLOAD DIV MUL DUP4 MSTORE SWAP2 PUSH1 0x20 ADD SWAP2 PUSH2 0x433 JUMP JUMPDEST DUP3 ADD SWAP2 SWAP1 PUSH1 0x0 MSTORE PUSH1 0x20 PUSH1 0x0 KECCAK256 SWAP1 JUMPDEST DUP2 SLOAD DUP2 MSTORE SWAP1 PUSH1 0x1 ADD SWAP1 PUSH1 0x20 ADD DUP1 DUP4 GT PUSH2 0x416 JUMPI DUP3 SWAP1 SUB PUSH1 0x1F AND DUP3 ADD SWAP2 JUMPDEST POP POP POP POP POP DUP2 JUMP JUMPDEST PUSH1 0x0 CALLER PUSH2 0x447 DUP8 PUSH2 0x6C5 JUMP JUMPDEST PUSH1 0x1 PUSH1 0x1 PUSH1 0xA0 SHL SUB DUP9 DUP2 AND PUSH1 0x0 SWAP1 DUP2 MSTORE PUSH1 0x2 PUSH1 0x20 SWAP1 DUP2 MSTORE PUSH1 0x40 DUP1 DUP4 KECCAK256 PUSH32 0xE0AD162BB67FD33E3D9148FCDACE40C0935ABA96125668ACB23F7ECABC423054 DUP5 MSTORE DUP3 MSTORE DUP1 DUP4 KECCAK256 CALLER DUP5 MSTORE SWAP1 SWAP2 MSTORE SWAP1 KECCAK256 SLOAD SWAP2 AND SWAP2 SWAP1 SWAP2 EQ SWAP2 POP TIMESTAMP LT PUSH32 0xA382BAB1A2BDCBE966273ED86557085B150C621194D848BBC94BD898CA6FD8BE DUP7 EQ DUP3 DUP1 PUSH2 0x4D2 JUMPI POP DUP2 DUP1 ISZERO PUSH2 0x4D2 JUMPI POP DUP1 JUMPDEST PUSH2 0x52F JUMPI PUSH1 0x40 MLOAD PUSH3 0x461BCD PUSH1 0xE5 SHL DUP2 MSTORE PUSH1 0x20 PUSH1 0x4 DUP3 ADD MSTORE PUSH1 0x24 DUP1 DUP3 ADD MSTORE PUSH32 0x4E6F7420617574686F72697A656420746F207365742074686973206174747269 PUSH1 0x44 DUP3 ADD MSTORE PUSH4 0x62757465 PUSH1 0xE0 SHL PUSH1 0x64 DUP3 ADD MSTORE PUSH1 0x84 ADD JUMPDEST PUSH1 0x40 MLOAD DUP1 SWAP2 SUB SWAP1 REVERT JUMPDEST PUSH1 0x1 PUSH1 0x1 PUSH1 0xA0 SHL SUB DUP9 AND PUSH1 0x0 SWAP1 DUP2 MSTORE PUSH1 0x3 PUSH1 0x20 SWAP1 DUP2 MSTORE PUSH1 0x40 DUP1 DUP4 KECCAK256 DUP11 DUP5 MSTORE SWAP1 SWAP2 MSTORE SWAP1 KECCAK256 PUSH2 0x55D DUP7 DUP9 DUP4 PUSH2 0xC73 JUMP JUMPDEST POP PUSH1 0x0 PUSH2 0x56A DUP6 TIMESTAMP PUSH2 0xD34 JUMP JUMPDEST PUSH1 0x1 PUSH1 0x1 PUSH1 0xA0 SHL SUB DUP11 AND PUSH1 0x0 DUP2 DUP2 MSTORE PUSH1 0x4 PUSH1 0x20 SWAP1 DUP2 MSTORE PUSH1 0x40 DUP1 DUP4 KECCAK256 DUP14 DUP5 MSTORE DUP3 MSTORE DUP1 DUP4 KECCAK256 DUP6 SWAP1 SSTORE DUP4 DUP4 MSTORE PUSH1 0x1 SWAP1 SWAP2 MSTORE SWAP1 DUP2 SWAP1 KECCAK256 DUP1 SLOAD NUMBER SWAP1 SWAP2 SSTORE SWAP1 MLOAD SWAP3 SWAP4 POP SWAP2 PUSH32 0x18AB6B2AE3D64306C00CE663125F2BD680E441A098DE1635BD7AD8B0D44965E4 SWAP1 PUSH2 0x5DD SWAP1 DUP13 SWAP1 DUP13 SWAP1 DUP13 SWAP1 DUP9 SWAP1 DUP9 SWAP1 PUSH2 0xD55 JUMP JUMPDEST PUSH1 0x40 MLOAD DUP1 SWAP2 SUB SWAP1 LOG2 POP POP POP POP POP POP POP POP POP POP JUMP JUMPDEST DUP3 CALLER PUSH2 0x5FC DUP3 PUSH2 0x6C5 JUMP JUMPDEST PUSH1 0x1 PUSH1 0x1 PUSH1 0xA0 SHL SUB AND EQ DUP1 PUSH2 0x619 JUMPI POP PUSH1 0x1 PUSH1 0x1 PUSH1 0xA0 SHL SUB DUP2 AND CALLER EQ JUMPDEST PUSH2 0x635 JUMPI PUSH1 0x40 MLOAD PUSH3 0x461BCD PUSH1 0xE5 SHL DUP2 MSTORE PUSH1 0x4 ADD PUSH2 0x526 SWAP1 PUSH2 0xD9C JUMP JUMPDEST PUSH1 0x1 PUSH1 0x1 PUSH1 0xA0 SHL SUB DUP5 DUP2 AND PUSH1 0x0 DUP2 DUP2 MSTORE PUSH1 0x2 PUSH1 0x20 SWAP1 DUP2 MSTORE PUSH1 0x40 DUP1 DUP4 KECCAK256 DUP9 DUP5 MSTORE DUP3 MSTORE DUP1 DUP4 KECCAK256 SWAP5 DUP8 AND DUP1 DUP5 MSTORE SWAP5 DUP3 MSTORE DUP1 DUP4 KECCAK256 DUP4 SWAP1 SSTORE DUP4 DUP4 MSTORE PUSH1 0x1 DUP3 MSTORE DUP1 DUP4 KECCAK256 NUMBER SWAP1 DUP2 SWAP1 SSTORE DUP2 MLOAD DUP10 DUP2 MSTORE SWAP3 DUP4 ADD SWAP6 SWAP1 SWAP6 MSTORE DUP2 ADD SWAP2 SWAP1 SWAP2 MSTORE PUSH1 0x60 DUP2 ADD SWAP3 SWAP1 SWAP3 MSTORE SWAP1 PUSH32 0x5A5084339536BCAB65F20799FCC58724588145CA054BD2BE626174B27BA156F7 SWAP1 PUSH1 0x80 ADD PUSH1 0x40 MLOAD DUP1 SWAP2 SUB SWAP1 LOG2 POP POP POP POP JUMP JUMPDEST PUSH1 0x1 PUSH1 0x1 PUSH1 0xA0 SHL SUB DUP1 DUP3 AND PUSH1 0x0 SWAP1 DUP2 MSTORE PUSH1 0x20 DUP2 SWAP1 MSTORE PUSH1 0x40 DUP2 KECCAK256 SLOAD SWAP1 SWAP2 AND DUP1 PUSH2 0x6ED JUMPI DUP3 PUSH2 0x6EF JUMP JUMPDEST DUP1 JUMPDEST SWAP4 SWAP3 POP POP POP JUMP JUMPDEST DUP4 CALLER PUSH2 0x701 DUP3 PUSH2 0x6C5 JUMP JUMPDEST PUSH1 0x1 PUSH1 0x1 PUSH1 0xA0 SHL SUB AND EQ DUP1 PUSH2 0x71E JUMPI POP PUSH1 0x1 PUSH1 0x1 PUSH1 0xA0 SHL SUB DUP2 AND CALLER EQ JUMPDEST PUSH2 0x73A JUMPI PUSH1 0x40 MLOAD PUSH3 0x461BCD PUSH1 0xE5 SHL DUP2 MSTORE PUSH1 0x4 ADD PUSH2 0x526 SWAP1 PUSH2 0xD9C JUMP JUMPDEST PUSH1 0x0 PUSH2 0x746 DUP4 TIMESTAMP PUSH2 0xD34 JUMP JUMPDEST PUSH1 0x1 PUSH1 0x1 PUSH1 0xA0 SHL SUB DUP8 DUP2 AND PUSH1 0x0 DUP2 DUP2 MSTORE PUSH1 0x2 PUSH1 0x20 SWAP1 DUP2 MSTORE PUSH1 0x40 DUP1 DUP4 KECCAK256 DUP12 DUP5 MSTORE DUP3 MSTORE DUP1 DUP4 KECCAK256 SWAP5 DUP11 AND DUP1 DUP5 MSTORE SWAP5 DUP3 MSTORE DUP1 DUP4 KECCAK256 DUP7 SWAP1 SSTORE DUP4 DUP4 MSTORE PUSH1 0x1 DUP3 MSTORE SWAP2 DUP3 SWAP1 KECCAK256 NUMBER SWAP1 DUP2 SWAP1 SSTORE DUP3 MLOAD DUP12 DUP2 MSTORE SWAP2 DUP3 ADD SWAP5 SWAP1 SWAP5 MSTORE SWAP1 DUP2 ADD DUP5 SWAP1 MSTORE PUSH1 0x60 DUP2 ADD SWAP3 SWAP1 SWAP3 MSTORE SWAP2 SWAP3 POP PUSH32 0x5A5084339536BCAB65F20799FCC58724588145CA054BD2BE626174B27BA156F7 SWAP1 PUSH1 0x80 ADD PUSH1 0x40 MLOAD DUP1 SWAP2 SUB SWAP1 LOG2 POP POP POP POP POP POP JUMP JUMPDEST DUP2 CALLER PUSH2 0x7E6 DUP3 PUSH2 0x6C5 JUMP JUMPDEST PUSH1 0x1 PUSH1 0x1 PUSH1 0xA0 SHL SUB AND EQ DUP1 PUSH2 0x803 JUMPI POP PUSH1 0x1 PUSH1 0x1 PUSH1 0xA0 SHL SUB DUP2 AND CALLER EQ JUMPDEST PUSH2 0x81F JUMPI PUSH1 0x40 MLOAD PUSH3 0x461BCD PUSH1 0xE5 SHL DUP2 MSTORE PUSH1 0x4 ADD PUSH2 0x526 SWAP1 PUSH2 0xD9C JUMP JUMPDEST PUSH1 0x1 PUSH1 0x1 PUSH1 0xA0 SHL SUB DUP4 AND PUSH1 0x0 SWAP1 DUP2 MSTORE PUSH1 0x3 PUSH1 0x20 SWAP1 DUP2 MSTORE PUSH1 0x40 DUP1 DUP4 KECCAK256 DUP6 DUP5 MSTORE SWAP1 SWAP2 MSTORE DUP2 KECCAK256 PUSH2 0x84B SWAP2 PUSH2 0x98D JUMP JUMPDEST PUSH1 0x1 PUSH1 0x1 PUSH1 0xA0 SHL SUB DUP4 AND PUSH1 0x0 DUP2 DUP2 MSTORE PUSH1 0x4 PUSH1 0x20 SWAP1 DUP2 MSTORE PUSH1 0x40 DUP1 DUP4 KECCAK256 DUP7 DUP5 MSTORE DUP3 MSTORE DUP1 DUP4 KECCAK256 DUP4 SWAP1 SSTORE DUP4 DUP4 MSTORE PUSH1 0x1 SWAP1 SWAP2 MSTORE DUP1 DUP3 KECCAK256 NUMBER SWAP1 DUP2 SWAP1 SSTORE SWAP1 MLOAD PUSH32 0x18AB6B2AE3D64306C00CE663125F2BD680E441A098DE1635BD7AD8B0D44965E4 SWAP3 PUSH2 0x8CE SWAP3 DUP8 DUP4 MSTORE PUSH1 0x80 PUSH1 0x20 DUP5 ADD DUP2 SWAP1 MSTORE PUSH1 0x0 SWAP1 DUP5 ADD MSTORE PUSH1 0x40 DUP4 ADD SWAP2 SWAP1 SWAP2 MSTORE PUSH1 0x60 DUP3 ADD MSTORE PUSH1 0xA0 ADD SWAP1 JUMP JUMPDEST PUSH1 0x40 MLOAD DUP1 SWAP2 SUB SWAP1 LOG2 POP POP POP JUMP JUMPDEST DUP2 CALLER PUSH2 0x8E6 DUP3 PUSH2 0x6C5 JUMP JUMPDEST PUSH1 0x1 PUSH1 0x1 PUSH1 0xA0 SHL SUB AND EQ DUP1 PUSH2 0x903 JUMPI POP PUSH1 0x1 PUSH1 0x1 PUSH1 0xA0 SHL SUB DUP2 AND CALLER EQ JUMPDEST PUSH2 0x91F JUMPI PUSH1 0x40 MLOAD PUSH3 0x461BCD PUSH1 0xE5 SHL DUP2 MSTORE PUSH1 0x4 ADD PUSH2 0x526 SWAP1 PUSH2 0xD9C JUMP JUMPDEST PUSH1 0x1 PUSH1 0x1 PUSH1 0xA0 SHL SUB DUP4 DUP2 AND PUSH1 0x0 DUP2 DUP2 MSTORE PUSH1 0x20 DUP2 DUP2 MSTORE PUSH1 0x40 DUP1 DUP4 KECCAK256 DUP1 SLOAD PUSH1 0x1 PUSH1 0x1 PUSH1 0xA0 SHL SUB NOT AND SWAP6 DUP9 AND SWAP6 DUP7 OR SWAP1 SSTORE PUSH1 0x1 DUP3 MSTORE SWAP2 DUP3 SWAP1 KECCAK256 NUMBER SWAP1 DUP2 SWAP1 SSTORE DUP3 MLOAD SWAP5 DUP6 MSTORE SWAP1 DUP5 ADD MSTORE SWAP1 SWAP2 PUSH32 0x38A5A6E68F30ED1AB45860A4AFB34BCB2FC00F22CA462D249B8A8D40CDA6F7A3 SWAP2 ADD PUSH2 0x8CE JUMP JUMPDEST POP DUP1 SLOAD PUSH2 0x999 SWAP1 PUSH2 0xBD4 JUMP JUMPDEST PUSH1 0x0 DUP3 SSTORE DUP1 PUSH1 0x1F LT PUSH2 0x9A9 JUMPI POP POP JUMP JUMPDEST PUSH1 0x1F ADD PUSH1 0x20 SWAP1 DIV SWAP1 PUSH1 0x0 MSTORE PUSH1 0x20 PUSH1 0x0 KECCAK256 SWAP1 DUP2 ADD SWAP1 PUSH2 0x9C7 SWAP2 SWAP1 PUSH2 0x9CA JUMP JUMPDEST POP JUMP JUMPDEST JUMPDEST DUP1 DUP3 GT ISZERO PUSH2 0x9DF JUMPI PUSH1 0x0 DUP2 SSTORE PUSH1 0x1 ADD PUSH2 0x9CB JUMP JUMPDEST POP SWAP1 JUMP JUMPDEST DUP1 CALLDATALOAD PUSH1 0x1 PUSH1 0x1 PUSH1 0xA0 SHL SUB DUP2 AND DUP2 EQ PUSH2 0x9FA JUMPI PUSH1 0x0 DUP1 REVERT JUMPDEST SWAP2 SWAP1 POP JUMP JUMPDEST PUSH1 0x0 PUSH1 0x20 DUP3 DUP5 SUB SLT ISZERO PUSH2 0xA11 JUMPI PUSH1 0x0 DUP1 REVERT JUMPDEST PUSH2 0x6EF DUP3 PUSH2 0x9E3 JUMP JUMPDEST PUSH1 0x0 DUP1 PUSH1 0x0 PUSH1 0x60 DUP5 DUP7 SUB SLT ISZERO PUSH2 0xA2F JUMPI PUSH1 0x0 DUP1 REVERT JUMPDEST PUSH2 0xA38 DUP5 PUSH2 0x9E3 JUMP JUMPDEST SWAP3 POP PUSH1 0x20 DUP5 ADD CALLDATALOAD SWAP2 POP PUSH2 0xA4D PUSH1 0x40 DUP6 ADD PUSH2 0x9E3 JUMP JUMPDEST SWAP1 POP SWAP3 POP SWAP3 POP SWAP3 JUMP JUMPDEST PUSH1 0x0 DUP1 PUSH1 0x40 DUP4 DUP6 SUB SLT ISZERO PUSH2 0xA69 JUMPI PUSH1 0x0 DUP1 REVERT JUMPDEST PUSH2 0xA72 DUP4 PUSH2 0x9E3 JUMP JUMPDEST SWAP5 PUSH1 0x20 SWAP4 SWAP1 SWAP4 ADD CALLDATALOAD SWAP4 POP POP POP JUMP JUMPDEST PUSH1 0x0 PUSH1 0x20 DUP1 DUP4 MSTORE DUP4 MLOAD DUP1 DUP3 DUP6 ADD MSTORE PUSH1 0x0 JUMPDEST DUP2 DUP2 LT ISZERO PUSH2 0xAAD JUMPI DUP6 DUP2 ADD DUP4 ADD MLOAD DUP6 DUP3 ADD PUSH1 0x40 ADD MSTORE DUP3 ADD PUSH2 0xA91 JUMP JUMPDEST POP PUSH1 0x0 PUSH1 0x40 DUP3 DUP7 ADD ADD MSTORE PUSH1 0x40 PUSH1 0x1F NOT PUSH1 0x1F DUP4 ADD AND DUP6 ADD ADD SWAP3 POP POP POP SWAP3 SWAP2 POP POP JUMP JUMPDEST PUSH1 0x0 DUP1 PUSH1 0x0 DUP1 PUSH1 0x0 PUSH1 0x80 DUP7 DUP9 SUB SLT ISZERO PUSH2 0xAE6 JUMPI PUSH1 0x0 DUP1 REVERT JUMPDEST PUSH2 0xAEF DUP7 PUSH2 0x9E3 JUMP JUMPDEST SWAP5 POP PUSH1 0x20 DUP7 ADD CALLDATALOAD SWAP4 POP PUSH1 0x40 DUP7 ADD CALLDATALOAD PUSH8 0xFFFFFFFFFFFFFFFF DUP1 DUP3 GT ISZERO PUSH2 0xB13 JUMPI PUSH1 0x0 DUP1 REVERT JUMPDEST DUP2 DUP9 ADD SWAP2 POP DUP9 PUSH1 0x1F DUP4 ADD SLT PUSH2 0xB27 JUMPI PUSH1 0x0 DUP1 REVERT JUMPDEST DUP2 CALLDATALOAD DUP2 DUP2 GT ISZERO PUSH2 0xB36 JUMPI PUSH1 0x0 DUP1 REVERT JUMPDEST DUP10 PUSH1 0x20 DUP3 DUP6 ADD ADD GT ISZERO PUSH2 0xB48 JUMPI PUSH1 0x0 DUP1 REVERT JUMPDEST SWAP7 SWAP10 SWAP6 SWAP9 POP POP PUSH1 0x20 ADD SWAP6 PUSH1 0x60 ADD CALLDATALOAD SWAP4 SWAP3 POP POP POP JUMP JUMPDEST PUSH1 0x0 DUP1 PUSH1 0x0 DUP1 PUSH1 0x80 DUP6 DUP8 SUB SLT ISZERO PUSH2 0xB73 JUMPI PUSH1 0x0 DUP1 REVERT JUMPDEST PUSH2 0xB7C DUP6 PUSH2 0x9E3 JUMP JUMPDEST SWAP4 POP PUSH1 0x20 DUP6 ADD CALLDATALOAD SWAP3 POP PUSH2 0xB91 PUSH1 0x40 DUP7 ADD PUSH2 0x9E3 JUMP JUMPDEST SWAP4 SWAP7 SWAP3 SWAP6 POP SWAP3 SWAP4 PUSH1 0x60 ADD CALLDATALOAD SWAP3 POP POP JUMP JUMPDEST PUSH1 0x0 DUP1 PUSH1 0x40 DUP4 DUP6 SUB SLT ISZERO PUSH2 0xBB4 JUMPI PUSH1 0x0 DUP1 REVERT JUMPDEST PUSH2 0xBBD DUP4 PUSH2 0x9E3 JUMP JUMPDEST SWAP2 POP PUSH2 0xBCB PUSH1 0x20 DUP5 ADD PUSH2 0x9E3 JUMP JUMPDEST SWAP1 POP SWAP3 POP SWAP3 SWAP1 POP JUMP JUMPDEST PUSH1 0x1 DUP2 DUP2 SHR SWAP1 DUP3 AND DUP1 PUSH2 0xBE8 JUMPI PUSH1 0x7F DUP3 AND SWAP2 POP JUMPDEST PUSH1 0x20 DUP3 LT DUP2 SUB PUSH2 0xC08 JUMPI PUSH4 0x4E487B71 PUSH1 0xE0 SHL PUSH1 0x0 MSTORE PUSH1 0x22 PUSH1 0x4 MSTORE PUSH1 0x24 PUSH1 0x0 REVERT JUMPDEST POP SWAP2 SWAP1 POP JUMP JUMPDEST PUSH4 0x4E487B71 PUSH1 0xE0 SHL PUSH1 0x0 MSTORE PUSH1 0x41 PUSH1 0x4 MSTORE PUSH1 0x24 PUSH1 0x0 REVERT JUMPDEST PUSH1 0x1F DUP3 GT ISZERO PUSH2 0xC6E JUMPI PUSH1 0x0 DUP2 DUP2 MSTORE PUSH1 0x20 DUP2 KECCAK256 PUSH1 0x1F DUP6 ADD PUSH1 0x5 SHR DUP2 ADD PUSH1 0x20 DUP7 LT ISZERO PUSH2 0xC4B JUMPI POP DUP1 JUMPDEST PUSH1 0x1F DUP6 ADD PUSH1 0x5 SHR DUP3 ADD SWAP2 POP JUMPDEST DUP2 DUP2 LT ISZERO PUSH2 0xC6A JUMPI DUP3 DUP2 SSTORE PUSH1 0x1 ADD PUSH2 0xC57 JUMP JUMPDEST POP POP POP JUMPDEST POP POP POP JUMP JUMPDEST PUSH8 0xFFFFFFFFFFFFFFFF DUP4 GT ISZERO PUSH2 0xC8B JUMPI PUSH2 0xC8B PUSH2 0xC0E JUMP JUMPDEST PUSH2 0xC9F DUP4 PUSH2 0xC99 DUP4 SLOAD PUSH2 0xBD4 JUMP JUMPDEST DUP4 PUSH2 0xC24 JUMP JUMPDEST PUSH1 0x0 PUSH1 0x1F DUP5 GT PUSH1 0x1 DUP2 EQ PUSH2 0xCD3 JUMPI PUSH1 0x0 DUP6 ISZERO PUSH2 0xCBB JUMPI POP DUP4 DUP3 ADD CALLDATALOAD JUMPDEST PUSH1 0x0 NOT PUSH1 0x3 DUP8 SWAP1 SHL SHR NOT AND PUSH1 0x1 DUP7 SWAP1 SHL OR DUP4 SSTORE PUSH2 0xD2D JUMP JUMPDEST PUSH1 0x0 DUP4 DUP2 MSTORE PUSH1 0x20 SWAP1 KECCAK256 PUSH1 0x1F NOT DUP7 AND SWAP1 DUP4 JUMPDEST DUP3 DUP2 LT ISZERO PUSH2 0xD04 JUMPI DUP7 DUP6 ADD CALLDATALOAD DUP3 SSTORE PUSH1 0x20 SWAP5 DUP6 ADD SWAP5 PUSH1 0x1 SWAP1 SWAP3 ADD SWAP2 ADD PUSH2 0xCE4 JUMP JUMPDEST POP DUP7 DUP3 LT ISZERO PUSH2 0xD21 JUMPI PUSH1 0x0 NOT PUSH1 0xF8 DUP9 PUSH1 0x3 SHL AND SHR NOT DUP5 DUP8 ADD CALLDATALOAD AND DUP2 SSTORE JUMPDEST POP POP PUSH1 0x1 DUP6 PUSH1 0x1 SHL ADD DUP4 SSTORE JUMPDEST POP POP POP POP POP JUMP JUMPDEST DUP1 DUP3 ADD DUP1 DUP3 GT ISZERO PUSH2 0x390 JUMPI PUSH4 0x4E487B71 PUSH1 0xE0 SHL PUSH1 0x0 MSTORE PUSH1 0x11 PUSH1 0x4 MSTORE PUSH1 0x24 PUSH1 0x0 REVERT JUMPDEST DUP6 DUP2 MSTORE PUSH1 0x80 PUSH1 0x20 DUP3 ADD MSTORE DUP4 PUSH1 0x80 DUP3 ADD MSTORE DUP4 DUP6 PUSH1 0xA0 DUP4 ADD CALLDATACOPY PUSH1 0x0 PUSH1 0xA0 DUP6 DUP4 ADD ADD MSTORE PUSH1 0x0 PUSH1 0xA0 PUSH1 0x1F NOT PUSH1 0x1F DUP8 ADD AND DUP4 ADD ADD SWAP1 POP DUP4 PUSH1 0x40 DUP4 ADD MSTORE DUP3 PUSH1 0x60 DUP4 ADD MSTORE SWAP7 SWAP6 POP POP POP POP POP POP JUMP JUMPDEST PUSH1 0x20 DUP1 DUP3 MSTORE PUSH1 0xE SWAP1 DUP3 ADD MSTORE PUSH14 0x139BDD08185D5D1A1BDC9A5E9959 PUSH1 0x92 SHL PUSH1 0x40 DUP3 ADD MSTORE PUSH1 0x60 ADD SWAP1 JUMP INVALID LOG2 PUSH5 0x6970667358 0x22 SLT KECCAK256 0x5C 0xB8 0xE5 STOP PUSH22 0xF66322B8547ADEF93E8517ED759B9A8AB6BEE7781E2F 0xE0 0xC5 0xE2 0x26 0xDA PUSH5 0x736F6C6343 STOP ADDMOD EQ STOP CALLER "},"methodIdentifiers":{"addDelegate(address,bytes32,address,uint256)":"a7068d66","attributeExpiry(address,bytes32)":"7ffcce5a","attributes(address,bytes32)":"719d0d30","changeOwner(address,address)":"f00d4b5d","changed(address)":"f96d0f9f","delegates(address,bytes32,address)":"0d44625b","getAttribute(address,bytes32)":"163f6691","identityOwner(address)":"8733d4e8","owners(address)":"022914a7","revokeAttribute(address,bytes32)":"dd1616d8","revokeDelegate(address,bytes32,address)":"80b29f7c","setAttribute(address,bytes32,bytes,uint256)":"7ad4b0a4","validDelegate(address,bytes32,address)":"622b2a3c"}}}}}